{
	"data": {
		"bytecode": {
			"linkReferences": {},
			"object": "6080604052348015600e575f5ffd5b506102ad8061001c5f395ff3fe608060405234801561000f575f5ffd5b5060043610610034575f3560e01c8063046dab1614610038578063a9059cbb14610056575b5f5ffd5b610040610086565b60405161004d919061014a565b60405180910390f35b610070600480360381019061006b91906101f4565b6100ad565b60405161007d919061014a565b60405180910390f35b5f7f6a627842f752de95745ef8f3ca67858982b5f585d752f8163e5855050041cb3c905090565b5f7ff950957d2407bed19dc99b718b46b4ce6090c05589006dfb86fd22c34865b23e83836040516100df929190610250565b60405180910390a17fa9059cbb2ab09eb219583f4a59a5d0623ade346d962bcd4e46b11da047c9049b905092915050565b5f7fffffffff0000000000000000000000000000000000000000000000000000000082169050919050565b61014481610110565b82525050565b5f60208201905061015d5f83018461013b565b92915050565b5f5ffd5b5f73ffffffffffffffffffffffffffffffffffffffff82169050919050565b5f61019082610167565b9050919050565b6101a081610186565b81146101aa575f5ffd5b50565b5f813590506101bb81610197565b92915050565b5f819050919050565b6101d3816101c1565b81146101dd575f5ffd5b50565b5f813590506101ee816101ca565b92915050565b5f5f6040838503121561020a57610209610163565b5b5f610217858286016101ad565b9250506020610228858286016101e0565b9150509250929050565b61023b81610186565b82525050565b61024a816101c1565b82525050565b5f6040820190506102635f830185610232565b6102706020830184610241565b939250505056fea2646970667358221220addfb9c7770a2199db55c1a29b4871f9ddf052539305bfc93dc57edb6f0daf6c64736f6c634300081e0033",
			"opcodes": "PUSH1 0x80 PUSH1 0x40 MSTORE CALLVALUE DUP1 ISZERO PUSH1 0xE JUMPI PUSH0 PUSH0 REVERT JUMPDEST POP PUSH2 0x2AD DUP1 PUSH2 0x1C PUSH0 CODECOPY PUSH0 RETURN INVALID PUSH1 0x80 PUSH1 0x40 MSTORE CALLVALUE DUP1 ISZERO PUSH2 0xF JUMPI PUSH0 PUSH0 REVERT JUMPDEST POP PUSH1 0x4 CALLDATASIZE LT PUSH2 0x34 JUMPI PUSH0 CALLDATALOAD PUSH1 0xE0 SHR DUP1 PUSH4 0x46DAB16 EQ PUSH2 0x38 JUMPI DUP1 PUSH4 0xA9059CBB EQ PUSH2 0x56 JUMPI JUMPDEST PUSH0 PUSH0 REVERT JUMPDEST PUSH2 0x40 PUSH2 0x86 JUMP JUMPDEST PUSH1 0x40 MLOAD PUSH2 0x4D SWAP2 SWAP1 PUSH2 0x14A JUMP JUMPDEST PUSH1 0x40 MLOAD DUP1 SWAP2 SUB SWAP1 RETURN JUMPDEST PUSH2 0x70 PUSH1 0x4 DUP1 CALLDATASIZE SUB DUP2 ADD SWAP1 PUSH2 0x6B SWAP2 SWAP1 PUSH2 0x1F4 JUMP JUMPDEST PUSH2 0xAD JUMP JUMPDEST PUSH1 0x40 MLOAD PUSH2 0x7D SWAP2 SWAP1 PUSH2 0x14A JUMP JUMPDEST PUSH1 0x40 MLOAD DUP1 SWAP2 SUB SWAP1 RETURN JUMPDEST PUSH0 PUSH32 0x6A627842F752DE95745EF8F3CA67858982B5F585D752F8163E5855050041CB3C SWAP1 POP SWAP1 JUMP JUMPDEST PUSH0 PUSH32 0xF950957D2407BED19DC99B718B46B4CE6090C05589006DFB86FD22C34865B23E DUP4 DUP4 PUSH1 0x40 MLOAD PUSH2 0xDF SWAP3 SWAP2 SWAP1 PUSH2 0x250 JUMP JUMPDEST PUSH1 0x40 MLOAD DUP1 SWAP2 SUB SWAP1 LOG1 PUSH32 0xA9059CBB2AB09EB219583F4A59A5D0623ADE346D962BCD4E46B11DA047C9049B SWAP1 POP SWAP3 SWAP2 POP POP JUMP JUMPDEST PUSH0 PUSH32 0xFFFFFFFF00000000000000000000000000000000000000000000000000000000 DUP3 AND SWAP1 POP SWAP2 SWAP1 POP JUMP JUMPDEST PUSH2 0x144 DUP2 PUSH2 0x110 JUMP JUMPDEST DUP3 MSTORE POP POP JUMP JUMPDEST PUSH0 PUSH1 0x20 DUP3 ADD SWAP1 POP PUSH2 0x15D PUSH0 DUP4 ADD DUP5 PUSH2 0x13B JUMP JUMPDEST SWAP3 SWAP2 POP POP JUMP JUMPDEST PUSH0 PUSH0 REVERT JUMPDEST PUSH0 PUSH20 0xFFFFFFFFFFFFFFFFFFFFFFFFFFFFFFFFFFFFFFFF DUP3 AND SWAP1 POP SWAP2 SWAP1 POP JUMP JUMPDEST PUSH0 PUSH2 0x190 DUP3 PUSH2 0x167 JUMP JUMPDEST SWAP1 POP SWAP2 SWAP1 POP JUMP JUMPDEST PUSH2 0x1A0 DUP2 PUSH2 0x186 JUMP JUMPDEST DUP2 EQ PUSH2 0x1AA JUMPI PUSH0 PUSH0 REVERT JUMPDEST POP JUMP JUMPDEST PUSH0 DUP2 CALLDATALOAD SWAP1 POP PUSH2 0x1BB DUP2 PUSH2 0x197 JUMP JUMPDEST SWAP3 SWAP2 POP POP JUMP JUMPDEST PUSH0 DUP2 SWAP1 POP SWAP2 SWAP1 POP JUMP JUMPDEST PUSH2 0x1D3 DUP2 PUSH2 0x1C1 JUMP JUMPDEST DUP2 EQ PUSH2 0x1DD JUMPI PUSH0 PUSH0 REVERT JUMPDEST POP JUMP JUMPDEST PUSH0 DUP2 CALLDATALOAD SWAP1 POP PUSH2 0x1EE DUP2 PUSH2 0x1CA JUMP JUMPDEST SWAP3 SWAP2 POP POP JUMP JUMPDEST PUSH0 PUSH0 PUSH1 0x40 DUP4 DUP6 SUB SLT ISZERO PUSH2 0x20A JUMPI PUSH2 0x209 PUSH2 0x163 JUMP JUMPDEST JUMPDEST PUSH0 PUSH2 0x217 DUP6 DUP3 DUP7 ADD PUSH2 0x1AD JUMP JUMPDEST SWAP3 POP POP PUSH1 0x20 PUSH2 0x228 DUP6 DUP3 DUP7 ADD PUSH2 0x1E0 JUMP JUMPDEST SWAP2 POP POP SWAP3 POP SWAP3 SWAP1 POP JUMP JUMPDEST PUSH2 0x23B DUP2 PUSH2 0x186 JUMP JUMPDEST DUP3 MSTORE POP POP JUMP JUMPDEST PUSH2 0x24A DUP2 PUSH2 0x1C1 JUMP JUMPDEST DUP3 MSTORE POP POP JUMP JUMPDEST PUSH0 PUSH1 0x40 DUP3 ADD SWAP1 POP PUSH2 0x263 PUSH0 DUP4 ADD DUP6 PUSH2 0x232 JUMP JUMPDEST PUSH2 0x270 PUSH1 0x20 DUP4 ADD DUP5 PUSH2 0x241 JUMP JUMPDEST SWAP4 SWAP3 POP POP POP JUMP INVALID LOG2 PUSH5 0x6970667358 0x22 SLT KECCAK256 0xAD 0xDF 0xB9 0xC7 PUSH24 0xA2199DB55C1A29B4871F9DDF052539305BFC93DC57EDB6F 0xD 0xAF PUSH13 0x64736F6C634300081E00330000 "
		},
		"gasEstimates": {
			"creation": {
				"codeDepositCost": "137000",
				"executionCost": "181",
				"totalCost": "137181"
			},
			"external": {
				"mintSelector()": "316",
				"transfer(address,uint256)": "infinite"
			}
		},
		"methodIdentifiers": {
			"mintSelector()": "046dab16",
			"transfer(address,uint256)": "a9059cbb"
		}
	},
	"abi": [
		{
			"anonymous": false,
			"inputs": [
				{
					"indexed": false,
					"internalType": "address",
					"name": "_address",
					"type": "address"
				},
				{
					"indexed": false,
					"internalType": "uint256",
					"name": "_uint",
					"type": "uint256"
				}
			],
			"name": "Log",
			"type": "event"
		},
		{
			"inputs": [],
			"name": "mintSelector",
			"outputs": [
				{
					"internalType": "bytes4",
					"name": "mSelector",
					"type": "bytes4"
				}
			],
			"stateMutability": "pure",
			"type": "function"
		},
		{
			"inputs": [
				{
					"internalType": "address",
					"name": "recipient",
					"type": "address"
				},
				{
					"internalType": "uint256",
					"name": "amount",
					"type": "uint256"
				}
			],
			"name": "transfer",
			"outputs": [
				{
					"internalType": "bytes4",
					"name": "mSelector",
					"type": "bytes4"
				}
			],
			"stateMutability": "nonpayable",
			"type": "function"
		}
	]
}